{
  "contractName": "Color",
  "abi": [
    {
      "inputs": [],
      "stateMutability": "nonpayable",
      "type": "constructor"
    },
    {
      "anonymous": false,
      "inputs": [
        {
          "indexed": true,
          "internalType": "address",
          "name": "owner",
          "type": "address"
        },
        {
          "indexed": true,
          "internalType": "address",
          "name": "approved",
          "type": "address"
        },
        {
          "indexed": true,
          "internalType": "uint256",
          "name": "tokenId",
          "type": "uint256"
        }
      ],
      "name": "Approval",
      "type": "event"
    },
    {
      "anonymous": false,
      "inputs": [
        {
          "indexed": true,
          "internalType": "address",
          "name": "owner",
          "type": "address"
        },
        {
          "indexed": true,
          "internalType": "address",
          "name": "operator",
          "type": "address"
        },
        {
          "indexed": false,
          "internalType": "bool",
          "name": "approved",
          "type": "bool"
        }
      ],
      "name": "ApprovalForAll",
      "type": "event"
    },
    {
      "anonymous": false,
      "inputs": [
        {
          "indexed": true,
          "internalType": "address",
          "name": "from",
          "type": "address"
        },
        {
          "indexed": true,
          "internalType": "address",
          "name": "to",
          "type": "address"
        },
        {
          "indexed": true,
          "internalType": "uint256",
          "name": "tokenId",
          "type": "uint256"
        }
      ],
      "name": "Transfer",
      "type": "event"
    },
    {
      "inputs": [
        {
          "internalType": "address",
          "name": "to",
          "type": "address"
        },
        {
          "internalType": "uint256",
          "name": "tokenId",
          "type": "uint256"
        }
      ],
      "name": "approve",
      "outputs": [],
      "stateMutability": "nonpayable",
      "type": "function"
    },
    {
      "inputs": [
        {
          "internalType": "address",
          "name": "owner",
          "type": "address"
        }
      ],
      "name": "balanceOf",
      "outputs": [
        {
          "internalType": "uint256",
          "name": "",
          "type": "uint256"
        }
      ],
      "stateMutability": "view",
      "type": "function",
      "constant": true
    },
    {
      "inputs": [
        {
          "internalType": "uint256",
          "name": "",
          "type": "uint256"
        }
      ],
      "name": "colors",
      "outputs": [
        {
          "internalType": "string",
          "name": "",
          "type": "string"
        }
      ],
      "stateMutability": "view",
      "type": "function",
      "constant": true
    },
    {
      "inputs": [
        {
          "internalType": "uint256",
          "name": "tokenId",
          "type": "uint256"
        }
      ],
      "name": "getApproved",
      "outputs": [
        {
          "internalType": "address",
          "name": "",
          "type": "address"
        }
      ],
      "stateMutability": "view",
      "type": "function",
      "constant": true
    },
    {
      "inputs": [
        {
          "internalType": "address",
          "name": "owner",
          "type": "address"
        },
        {
          "internalType": "address",
          "name": "operator",
          "type": "address"
        }
      ],
      "name": "isApprovedForAll",
      "outputs": [
        {
          "internalType": "bool",
          "name": "",
          "type": "bool"
        }
      ],
      "stateMutability": "view",
      "type": "function",
      "constant": true
    },
    {
      "inputs": [],
      "name": "name",
      "outputs": [
        {
          "internalType": "string",
          "name": "",
          "type": "string"
        }
      ],
      "stateMutability": "view",
      "type": "function",
      "constant": true
    },
    {
      "inputs": [
        {
          "internalType": "uint256",
          "name": "tokenId",
          "type": "uint256"
        }
      ],
      "name": "ownerOf",
      "outputs": [
        {
          "internalType": "address",
          "name": "",
          "type": "address"
        }
      ],
      "stateMutability": "view",
      "type": "function",
      "constant": true
    },
    {
      "inputs": [
        {
          "internalType": "address",
          "name": "from",
          "type": "address"
        },
        {
          "internalType": "address",
          "name": "to",
          "type": "address"
        },
        {
          "internalType": "uint256",
          "name": "tokenId",
          "type": "uint256"
        }
      ],
      "name": "safeTransferFrom",
      "outputs": [],
      "stateMutability": "nonpayable",
      "type": "function"
    },
    {
      "inputs": [
        {
          "internalType": "address",
          "name": "from",
          "type": "address"
        },
        {
          "internalType": "address",
          "name": "to",
          "type": "address"
        },
        {
          "internalType": "uint256",
          "name": "tokenId",
          "type": "uint256"
        },
        {
          "internalType": "bytes",
          "name": "_data",
          "type": "bytes"
        }
      ],
      "name": "safeTransferFrom",
      "outputs": [],
      "stateMutability": "nonpayable",
      "type": "function"
    },
    {
      "inputs": [
        {
          "internalType": "address",
          "name": "operator",
          "type": "address"
        },
        {
          "internalType": "bool",
          "name": "approved",
          "type": "bool"
        }
      ],
      "name": "setApprovalForAll",
      "outputs": [],
      "stateMutability": "nonpayable",
      "type": "function"
    },
    {
      "inputs": [
        {
          "internalType": "bytes4",
          "name": "interfaceId",
          "type": "bytes4"
        }
      ],
      "name": "supportsInterface",
      "outputs": [
        {
          "internalType": "bool",
          "name": "",
          "type": "bool"
        }
      ],
      "stateMutability": "view",
      "type": "function",
      "constant": true
    },
    {
      "inputs": [],
      "name": "symbol",
      "outputs": [
        {
          "internalType": "string",
          "name": "",
          "type": "string"
        }
      ],
      "stateMutability": "view",
      "type": "function",
      "constant": true
    },
    {
      "inputs": [
        {
          "internalType": "address",
          "name": "from",
          "type": "address"
        },
        {
          "internalType": "address",
          "name": "to",
          "type": "address"
        },
        {
          "internalType": "uint256",
          "name": "tokenId",
          "type": "uint256"
        }
      ],
      "name": "transferFrom",
      "outputs": [],
      "stateMutability": "nonpayable",
      "type": "function"
    },
    {
      "inputs": [
        {
          "internalType": "uint256",
          "name": "tokenId",
          "type": "uint256"
        }
      ],
      "name": "tokenURI",
      "outputs": [
        {
          "internalType": "string",
          "name": "",
          "type": "string"
        }
      ],
      "stateMutability": "view",
      "type": "function",
      "constant": true
    },
    {
      "inputs": [
        {
          "internalType": "string",
          "name": "_color",
          "type": "string"
        },
        {
          "internalType": "string",
          "name": "_ipfsHash",
          "type": "string"
        }
      ],
      "name": "mint",
      "outputs": [],
      "stateMutability": "nonpayable",
      "type": "function"
    }
  ],
  "bytecode": "0x60806040523480156200001157600080fd5b506040518060400160405280600781526020017f4d79436f6c6f72000000000000000000000000000000000000000000000000008152506040518060400160405280600381526020017f4d79430000000000000000000000000000000000000000000000000000000000815250816000908051906020019062000096929190620000b8565b508060019080519060200190620000af929190620000b8565b505050620001cd565b828054620000c69062000168565b90600052602060002090601f016020900481019282620000ea576000855562000136565b82601f106200010557805160ff191683800117855562000136565b8280016001018555821562000136579182015b828111156200013557825182559160200191906001019062000118565b5b50905062000145919062000149565b5090565b5b80821115620001645760008160009055506001016200014a565b5090565b600060028204905060018216806200018157607f821691505b602082108114156200019857620001976200019e565b5b50919050565b7f4e487b7100000000000000000000000000000000000000000000000000000000600052602260045260246000fd5b6128dc80620001dd6000396000f3fe608060405234801561001057600080fd5b50600436106100f55760003560e01c806370a0823111610097578063b88d4fde11610066578063b88d4fde14610282578063bd11f69d1461029e578063c87b56dd146102ce578063e985e9c5146102fe576100f5565b806370a08231146101fc5780638aa0fdad1461022c57806395d89b4114610248578063a22cb46514610266576100f5565b8063095ea7b3116100d3578063095ea7b31461017857806323b872dd1461019457806342842e0e146101b05780636352211e146101cc576100f5565b806301ffc9a7146100fa57806306fdde031461012a578063081812fc14610148575b600080fd5b610114600480360381019061010f9190611adf565b61032e565b6040516101219190612319565b60405180910390f35b610132610410565b60405161013f9190612334565b60405180910390f35b610162600480360381019061015d9190611b9d565b6104a2565b60405161016f91906122b2565b60405180910390f35b610192600480360381019061018d9190611aa3565b610527565b005b6101ae60048036038101906101a9919061199d565b61063f565b005b6101ca60048036038101906101c5919061199d565b61069f565b005b6101e660048036038101906101e19190611b9d565b6106bf565b6040516101f391906122b2565b60405180910390f35b61021660048036038101906102119190611938565b610771565b6040516102239190612536565b60405180910390f35b61024660048036038101906102419190611b31565b610829565b005b610250610955565b60405161025d9190612334565b60405180910390f35b610280600480360381019061027b9190611a67565b6109e7565b005b61029c600480360381019061029791906119ec565b610b68565b005b6102b860048036038101906102b39190611b9d565b610bca565b6040516102c59190612334565b60405180910390f35b6102e860048036038101906102e39190611b9d565b610c76565b6040516102f59190612334565b60405180910390f35b61031860048036038101906103139190611961565b610d68565b6040516103259190612319565b60405180910390f35b60007f80ac58cd000000000000000000000000000000000000000000000000000000007bffffffffffffffffffffffffffffffffffffffffffffffffffffffff1916827bffffffffffffffffffffffffffffffffffffffffffffffffffffffff191614806103f957507f5b5e139f000000000000000000000000000000000000000000000000000000007bffffffffffffffffffffffffffffffffffffffffffffffffffffffff1916827bffffffffffffffffffffffffffffffffffffffffffffffffffffffff1916145b80610409575061040882610dfc565b5b9050919050565b60606000805461041f9061277a565b80601f016020809104026020016040519081016040528092919081815260200182805461044b9061277a565b80156104985780601f1061046d57610100808354040283529160200191610498565b820191906000526020600020905b81548152906001019060200180831161047b57829003601f168201915b5050505050905090565b60006104ad82610e66565b6104ec576040517f08c379a00000000000000000000000000000000000000000000000000000000081526004016104e390612476565b60405180910390fd5b6004600083815260200190815260200160002060009054906101000a900473ffffffffffffffffffffffffffffffffffffffff169050919050565b6000610532826106bf565b90508073ffffffffffffffffffffffffffffffffffffffff168373ffffffffffffffffffffffffffffffffffffffff1614156105a3576040517f08c379a000000000000000000000000000000000000000000000000000000000815260040161059a906124f6565b60405180910390fd5b8073ffffffffffffffffffffffffffffffffffffffff166105c2610ed2565b73ffffffffffffffffffffffffffffffffffffffff1614806105f157506105f0816105eb610ed2565b610d68565b5b610630576040517f08c379a0000000000000000000000000000000000000000000000000000000008152600401610627906123f6565b60405180910390fd5b61063a8383610eda565b505050565b61065061064a610ed2565b82610f93565b61068f576040517f08c379a000000000000000000000000000000000000000000000000000000000815260040161068690612516565b60405180910390fd5b61069a838383611071565b505050565b6106ba83838360405180602001604052806000815250610b68565b505050565b6000806002600084815260200190815260200160002060009054906101000a900473ffffffffffffffffffffffffffffffffffffffff169050600073ffffffffffffffffffffffffffffffffffffffff168173ffffffffffffffffffffffffffffffffffffffff161415610768576040517f08c379a000000000000000000000000000000000000000000000000000000000815260040161075f90612436565b60405180910390fd5b80915050919050565b60008073ffffffffffffffffffffffffffffffffffffffff168273ffffffffffffffffffffffffffffffffffffffff1614156107e2576040517f08c379a00000000000000000000000000000000000000000000000000000000081526004016107d990612416565b60405180910390fd5b600360008373ffffffffffffffffffffffffffffffffffffffff1673ffffffffffffffffffffffffffffffffffffffff168152602001908152602001600020549050919050565b6007826040516108399190612277565b908152602001604051809103902060009054906101000a900460ff1615610895576040517f08c379a000000000000000000000000000000000000000000000000000000000815260040161088c906124d6565b60405180910390fd5b6006829080600181540180825580915050600190039060005260206000200160009091909190915090805190602001906108d092919061175c565b50600060016006805490506108e59190612690565b90506108f133826112cd565b8160086000838152602001908152602001600020908051906020019061091892919061175c565b50600160078460405161092b9190612277565b908152602001604051809103902060006101000a81548160ff021916908315150217905550505050565b6060600180546109649061277a565b80601f01602080910402602001604051908101604052809291908181526020018280546109909061277a565b80156109dd5780601f106109b2576101008083540402835291602001916109dd565b820191906000526020600020905b8154815290600101906020018083116109c057829003601f168201915b5050505050905090565b6109ef610ed2565b73ffffffffffffffffffffffffffffffffffffffff168273ffffffffffffffffffffffffffffffffffffffff161415610a5d576040517f08c379a0000000000000000000000000000000000000000000000000000000008152600401610a54906123b6565b60405180910390fd5b8060056000610a6a610ed2565b73ffffffffffffffffffffffffffffffffffffffff1673ffffffffffffffffffffffffffffffffffffffff16815260200190815260200160002060008473ffffffffffffffffffffffffffffffffffffffff1673ffffffffffffffffffffffffffffffffffffffff16815260200190815260200160002060006101000a81548160ff0219169083151502179055508173ffffffffffffffffffffffffffffffffffffffff16610b17610ed2565b73ffffffffffffffffffffffffffffffffffffffff167f17307eab39ab6107e8899845ad3d59bd9653f200f220920489ca2b5937696c3183604051610b5c9190612319565b60405180910390a35050565b610b79610b73610ed2565b83610f93565b610bb8576040517f08c379a0000000000000000000000000000000000000000000000000000000008152600401610baf90612516565b60405180910390fd5b610bc4848484846112eb565b50505050565b60068181548110610bda57600080fd5b906000526020600020016000915090508054610bf59061277a565b80601f0160208091040260200160405190810160405280929190818152602001828054610c219061277a565b8015610c6e5780601f10610c4357610100808354040283529160200191610c6e565b820191906000526020600020905b815481529060010190602001808311610c5157829003601f168201915b505050505081565b6060610c8182610e66565b610cc0576040517f08c379a0000000000000000000000000000000000000000000000000000000008152600401610cb7906124b6565b60405180910390fd5b6000610cca611347565b90506000600860008581526020019081526020016000208054610cec9061277a565b90501115610d4f576000815111610d125760405180602001604052806000815250610d47565b8060086000858152602001908152602001600020604051602001610d3792919061228e565b6040516020818303038152906040525b915050610d63565b604051806020016040528060008152509150505b919050565b6000600560008473ffffffffffffffffffffffffffffffffffffffff1673ffffffffffffffffffffffffffffffffffffffff16815260200190815260200160002060008373ffffffffffffffffffffffffffffffffffffffff1673ffffffffffffffffffffffffffffffffffffffff16815260200190815260200160002060009054906101000a900460ff16905092915050565b60007f01ffc9a7000000000000000000000000000000000000000000000000000000007bffffffffffffffffffffffffffffffffffffffffffffffffffffffff1916827bffffffffffffffffffffffffffffffffffffffffffffffffffffffff1916149050919050565b60008073ffffffffffffffffffffffffffffffffffffffff166002600084815260200190815260200160002060009054906101000a900473ffffffffffffffffffffffffffffffffffffffff1673ffffffffffffffffffffffffffffffffffffffff1614159050919050565b600033905090565b816004600083815260200190815260200160002060006101000a81548173ffffffffffffffffffffffffffffffffffffffff021916908373ffffffffffffffffffffffffffffffffffffffff160217905550808273ffffffffffffffffffffffffffffffffffffffff16610f4d836106bf565b73ffffffffffffffffffffffffffffffffffffffff167f8c5be1e5ebec7d5bd14f71427d1e84f3dd0314c0f7b2291e5b200ac8c7c3b92560405160405180910390a45050565b6000610f9e82610e66565b610fdd576040517f08c379a0000000000000000000000000000000000000000000000000000000008152600401610fd4906123d6565b60405180910390fd5b6000610fe8836106bf565b90508073ffffffffffffffffffffffffffffffffffffffff168473ffffffffffffffffffffffffffffffffffffffff16148061105757508373ffffffffffffffffffffffffffffffffffffffff1661103f846104a2565b73ffffffffffffffffffffffffffffffffffffffff16145b8061106857506110678185610d68565b5b91505092915050565b8273ffffffffffffffffffffffffffffffffffffffff16611091826106bf565b73ffffffffffffffffffffffffffffffffffffffff16146110e7576040517f08c379a00000000000000000000000000000000000000000000000000000000081526004016110de90612496565b60405180910390fd5b600073ffffffffffffffffffffffffffffffffffffffff168273ffffffffffffffffffffffffffffffffffffffff161415611157576040517f08c379a000000000000000000000000000000000000000000000000000000000815260040161114e90612396565b60405180910390fd5b611162838383611384565b61116d600082610eda565b6001600360008573ffffffffffffffffffffffffffffffffffffffff1673ffffffffffffffffffffffffffffffffffffffff16815260200190815260200160002060008282546111bd9190612690565b925050819055506001600360008473ffffffffffffffffffffffffffffffffffffffff1673ffffffffffffffffffffffffffffffffffffffff1681526020019081526020016000206000828254611214919061263a565b92505081905550816002600083815260200190815260200160002060006101000a81548173ffffffffffffffffffffffffffffffffffffffff021916908373ffffffffffffffffffffffffffffffffffffffff160217905550808273ffffffffffffffffffffffffffffffffffffffff168473ffffffffffffffffffffffffffffffffffffffff167fddf252ad1be2c89b69c2b068fc378daa952ba7f163c4a11628f55a4df523b3ef60405160405180910390a4505050565b6112e7828260405180602001604052806000815250611389565b5050565b6112f6848484611071565b611302848484846113e4565b611341576040517f08c379a000000000000000000000000000000000000000000000000000000000815260040161133890612356565b60405180910390fd5b50505050565b60606040518060400160405280600781526020017f697066733a2f2f00000000000000000000000000000000000000000000000000815250905090565b505050565b611393838361157b565b6113a060008484846113e4565b6113df576040517f08c379a00000000000000000000000000000000000000000000000000000000081526004016113d690612356565b60405180910390fd5b505050565b60006114058473ffffffffffffffffffffffffffffffffffffffff16611749565b1561156e578373ffffffffffffffffffffffffffffffffffffffff1663150b7a0261142e610ed2565b8786866040518563ffffffff1660e01b815260040161145094939291906122cd565b602060405180830381600087803b15801561146a57600080fd5b505af192505050801561149b57506040513d601f19601f820116820180604052508101906114989190611b08565b60015b61151e573d80600081146114cb576040519150601f19603f3d011682016040523d82523d6000602084013e6114d0565b606091505b50600081511415611516576040517f08c379a000000000000000000000000000000000000000000000000000000000815260040161150d90612356565b60405180910390fd5b805181602001fd5b63150b7a0260e01b7bffffffffffffffffffffffffffffffffffffffffffffffffffffffff1916817bffffffffffffffffffffffffffffffffffffffffffffffffffffffff191614915050611573565b600190505b949350505050565b600073ffffffffffffffffffffffffffffffffffffffff168273ffffffffffffffffffffffffffffffffffffffff1614156115eb576040517f08c379a00000000000000000000000000000000000000000000000000000000081526004016115e290612456565b60405180910390fd5b6115f481610e66565b15611634576040517f08c379a000000000000000000000000000000000000000000000000000000000815260040161162b90612376565b60405180910390fd5b61164060008383611384565b6001600360008473ffffffffffffffffffffffffffffffffffffffff1673ffffffffffffffffffffffffffffffffffffffff1681526020019081526020016000206000828254611690919061263a565b92505081905550816002600083815260200190815260200160002060006101000a81548173ffffffffffffffffffffffffffffffffffffffff021916908373ffffffffffffffffffffffffffffffffffffffff160217905550808273ffffffffffffffffffffffffffffffffffffffff16600073ffffffffffffffffffffffffffffffffffffffff167fddf252ad1be2c89b69c2b068fc378daa952ba7f163c4a11628f55a4df523b3ef60405160405180910390a45050565b600080823b905060008111915050919050565b8280546117689061277a565b90600052602060002090601f01602090048101928261178a57600085556117d1565b82601f106117a357805160ff19168380011785556117d1565b828001600101855582156117d1579182015b828111156117d05782518255916020019190600101906117b5565b5b5090506117de91906117e2565b5090565b5b808211156117fb5760008160009055506001016117e3565b5090565b600061181261180d84612582565b612551565b90508281526020810184848401111561182a57600080fd5b611835848285612738565b509392505050565b600061185061184b846125b2565b612551565b90508281526020810184848401111561186857600080fd5b611873848285612738565b509392505050565b60008135905061188a8161284a565b92915050565b60008135905061189f81612861565b92915050565b6000813590506118b481612878565b92915050565b6000815190506118c981612878565b92915050565b600082601f8301126118e057600080fd5b81356118f08482602086016117ff565b91505092915050565b600082601f83011261190a57600080fd5b813561191a84826020860161183d565b91505092915050565b6000813590506119328161288f565b92915050565b60006020828403121561194a57600080fd5b60006119588482850161187b565b91505092915050565b6000806040838503121561197457600080fd5b60006119828582860161187b565b92505060206119938582860161187b565b9150509250929050565b6000806000606084860312156119b257600080fd5b60006119c08682870161187b565b93505060206119d18682870161187b565b92505060406119e286828701611923565b9150509250925092565b60008060008060808587031215611a0257600080fd5b6000611a108782880161187b565b9450506020611a218782880161187b565b9350506040611a3287828801611923565b925050606085013567ffffffffffffffff811115611a4f57600080fd5b611a5b878288016118cf565b91505092959194509250565b60008060408385031215611a7a57600080fd5b6000611a888582860161187b565b9250506020611a9985828601611890565b9150509250929050565b60008060408385031215611ab657600080fd5b6000611ac48582860161187b565b9250506020611ad585828601611923565b9150509250929050565b600060208284031215611af157600080fd5b6000611aff848285016118a5565b91505092915050565b600060208284031215611b1a57600080fd5b6000611b28848285016118ba565b91505092915050565b60008060408385031215611b4457600080fd5b600083013567ffffffffffffffff811115611b5e57600080fd5b611b6a858286016118f9565b925050602083013567ffffffffffffffff811115611b8757600080fd5b611b93858286016118f9565b9150509250929050565b600060208284031215611baf57600080fd5b6000611bbd84828501611923565b91505092915050565b611bcf816126c4565b82525050565b611bde816126d6565b82525050565b6000611bef826125f7565b611bf9818561260d565b9350611c09818560208601612747565b611c1281612839565b840191505092915050565b6000611c2882612602565b611c32818561261e565b9350611c42818560208601612747565b611c4b81612839565b840191505092915050565b6000611c6182612602565b611c6b818561262f565b9350611c7b818560208601612747565b80840191505092915050565b60008154611c948161277a565b611c9e818661262f565b94506001821660008114611cb95760018114611cca57611cfd565b60ff19831686528186019350611cfd565b611cd3856125e2565b60005b83811015611cf557815481890152600182019150602081019050611cd6565b838801955050505b50505092915050565b6000611d1360328361261e565b91507f4552433732313a207472616e7366657220746f206e6f6e20455243373231526560008301527f63656976657220696d706c656d656e74657200000000000000000000000000006020830152604082019050919050565b6000611d79601c8361261e565b91507f4552433732313a20746f6b656e20616c7265616479206d696e746564000000006000830152602082019050919050565b6000611db960248361261e565b91507f4552433732313a207472616e7366657220746f20746865207a65726f2061646460008301527f72657373000000000000000000000000000000000000000000000000000000006020830152604082019050919050565b6000611e1f60198361261e565b91507f4552433732313a20617070726f766520746f2063616c6c6572000000000000006000830152602082019050919050565b6000611e5f602c8361261e565b91507f4552433732313a206f70657261746f7220717565727920666f72206e6f6e657860008301527f697374656e7420746f6b656e00000000000000000000000000000000000000006020830152604082019050919050565b6000611ec560388361261e565b91507f4552433732313a20617070726f76652063616c6c6572206973206e6f74206f7760008301527f6e6572206e6f7220617070726f76656420666f7220616c6c00000000000000006020830152604082019050919050565b6000611f2b602a8361261e565b91507f4552433732313a2062616c616e636520717565727920666f7220746865207a6560008301527f726f2061646472657373000000000000000000000000000000000000000000006020830152604082019050919050565b6000611f9160298361261e565b91507f4552433732313a206f776e657220717565727920666f72206e6f6e657869737460008301527f656e7420746f6b656e00000000000000000000000000000000000000000000006020830152604082019050919050565b6000611ff760208361261e565b91507f4552433732313a206d696e7420746f20746865207a65726f20616464726573736000830152602082019050919050565b6000612037602c8361261e565b91507f4552433732313a20617070726f76656420717565727920666f72206e6f6e657860008301527f697374656e7420746f6b656e00000000000000000000000000000000000000006020830152604082019050919050565b600061209d60298361261e565b91507f4552433732313a207472616e73666572206f6620746f6b656e2074686174206960008301527f73206e6f74206f776e00000000000000000000000000000000000000000000006020830152604082019050919050565b6000612103602f8361261e565b91507f4552433732314d657461646174613a2055524920717565727920666f72206e6f60008301527f6e6578697374656e7420746f6b656e00000000000000000000000000000000006020830152604082019050919050565b6000612169600c8361261e565b91507f636f6c6f722065786973747300000000000000000000000000000000000000006000830152602082019050919050565b60006121a960218361261e565b91507f4552433732313a20617070726f76616c20746f2063757272656e74206f776e6560008301527f72000000000000000000000000000000000000000000000000000000000000006020830152604082019050919050565b600061220f60318361261e565b91507f4552433732313a207472616e736665722063616c6c6572206973206e6f74206f60008301527f776e6572206e6f7220617070726f7665640000000000000000000000000000006020830152604082019050919050565b6122718161272e565b82525050565b60006122838284611c56565b915081905092915050565b600061229a8285611c56565b91506122a68284611c87565b91508190509392505050565b60006020820190506122c76000830184611bc6565b92915050565b60006080820190506122e26000830187611bc6565b6122ef6020830186611bc6565b6122fc6040830185612268565b818103606083015261230e8184611be4565b905095945050505050565b600060208201905061232e6000830184611bd5565b92915050565b6000602082019050818103600083015261234e8184611c1d565b905092915050565b6000602082019050818103600083015261236f81611d06565b9050919050565b6000602082019050818103600083015261238f81611d6c565b9050919050565b600060208201905081810360008301526123af81611dac565b9050919050565b600060208201905081810360008301526123cf81611e12565b9050919050565b600060208201905081810360008301526123ef81611e52565b9050919050565b6000602082019050818103600083015261240f81611eb8565b9050919050565b6000602082019050818103600083015261242f81611f1e565b9050919050565b6000602082019050818103600083015261244f81611f84565b9050919050565b6000602082019050818103600083015261246f81611fea565b9050919050565b6000602082019050818103600083015261248f8161202a565b9050919050565b600060208201905081810360008301526124af81612090565b9050919050565b600060208201905081810360008301526124cf816120f6565b9050919050565b600060208201905081810360008301526124ef8161215c565b9050919050565b6000602082019050818103600083015261250f8161219c565b9050919050565b6000602082019050818103600083015261252f81612202565b9050919050565b600060208201905061254b6000830184612268565b92915050565b6000604051905081810181811067ffffffffffffffff821117156125785761257761280a565b5b8060405250919050565b600067ffffffffffffffff82111561259d5761259c61280a565b5b601f19601f8301169050602081019050919050565b600067ffffffffffffffff8211156125cd576125cc61280a565b5b601f19601f8301169050602081019050919050565b60008190508160005260206000209050919050565b600081519050919050565b600081519050919050565b600082825260208201905092915050565b600082825260208201905092915050565b600081905092915050565b60006126458261272e565b91506126508361272e565b9250827fffffffffffffffffffffffffffffffffffffffffffffffffffffffffffffffff03821115612685576126846127ac565b5b828201905092915050565b600061269b8261272e565b91506126a68361272e565b9250828210156126b9576126b86127ac565b5b828203905092915050565b60006126cf8261270e565b9050919050565b60008115159050919050565b60007fffffffff0000000000000000000000000000000000000000000000000000000082169050919050565b600073ffffffffffffffffffffffffffffffffffffffff82169050919050565b6000819050919050565b82818337600083830152505050565b60005b8381101561276557808201518184015260208101905061274a565b83811115612774576000848401525b50505050565b6000600282049050600182168061279257607f821691505b602082108114156127a6576127a56127db565b5b50919050565b7f4e487b7100000000000000000000000000000000000000000000000000000000600052601160045260246000fd5b7f4e487b7100000000000000000000000000000000000000000000000000000000600052602260045260246000fd5b7f4e487b7100000000000000000000000000000000000000000000000000000000600052604160045260246000fd5b6000601f19601f8301169050919050565b612853816126c4565b811461285e57600080fd5b50565b61286a816126d6565b811461287557600080fd5b50565b612881816126e2565b811461288c57600080fd5b50565b6128988161272e565b81146128a357600080fd5b5056fea2646970667358221220fb3739a9efa1fd2c74bb67090193eae73427d096c5230e882aaf0a3beb9f66c464736f6c63430008000033",
  "immutableReferences": {},
  "source": "pragma solidity ^0.8.0;\nimport \"@openzeppelin/contracts/token/ERC721/ERC721.sol\";\n\ncontract Color is ERC721 {\n\n    string[] public colors;\n    mapping(string => bool) _colorExists;\n    mapping(uint256 => string) _tokenURI;\n\n    constructor() ERC721(\"MyColor\", \"MyC\") public {}\n\n    /**\n     * @dev See {IERC721Metadata-tokenURI}.\n     */\n    function tokenURI(uint256 tokenId) public view virtual override returns (string memory) {\n        require(_exists(tokenId), \"ERC721Metadata: URI query for nonexistent token\");\n\n        string memory baseURI = _baseURI();\n        if(bytes(_tokenURI[tokenId]).length > 0) {\n            return bytes(baseURI).length > 0 ? string(abi.encodePacked(baseURI, _tokenURI[tokenId])) : \"\";\n        }\n        return \"\";\n    }\n\n    /**\n     * @dev Base URI for computing {tokenURI}. If set, the resulting URI for each\n     * token will be the concatenation of the `baseURI` and the `tokenId`. Empty\n     * by default, can be overriden in child contracts.\n     */\n    function _baseURI()  internal view virtual override returns (string memory) {\n        return \"ipfs://\";\n    }\n\n\n    function mint(string memory _color, string memory _ipfsHash) public {\n        require(!_colorExists[_color], \"color exists\");\n        colors.push(_color);\n        uint id = colors.length - 1;\n        _safeMint(msg.sender, id);\n        _tokenURI[id] = _ipfsHash;\n        _colorExists[_color] = true;\n    }\n}",
  "sourcePath": "/home/guantian/Projects/learn-nft/src/contracts/Color.sol",
  "compiler": {
    "name": "solc",
    "version": "0.8.0+commit.c7dfd78e.Emscripten.clang"
  },
  "schemaVersion": "3.4.3",
  "updatedAt": "2021-10-18T08:18:00.949Z",
  "networkType": "ethereum",
  "devdoc": {
    "kind": "dev",
    "methods": {
      "approve(address,uint256)": {
        "details": "See {IERC721-approve}."
      },
      "balanceOf(address)": {
        "details": "See {IERC721-balanceOf}."
      },
      "getApproved(uint256)": {
        "details": "See {IERC721-getApproved}."
      },
      "isApprovedForAll(address,address)": {
        "details": "See {IERC721-isApprovedForAll}."
      },
      "name()": {
        "details": "See {IERC721Metadata-name}."
      },
      "ownerOf(uint256)": {
        "details": "See {IERC721-ownerOf}."
      },
      "safeTransferFrom(address,address,uint256)": {
        "details": "See {IERC721-safeTransferFrom}."
      },
      "safeTransferFrom(address,address,uint256,bytes)": {
        "details": "See {IERC721-safeTransferFrom}."
      },
      "setApprovalForAll(address,bool)": {
        "details": "See {IERC721-setApprovalForAll}."
      },
      "supportsInterface(bytes4)": {
        "details": "See {IERC165-supportsInterface}."
      },
      "symbol()": {
        "details": "See {IERC721Metadata-symbol}."
      },
      "tokenURI(uint256)": {
        "details": "See {IERC721Metadata-tokenURI}."
      },
      "transferFrom(address,address,uint256)": {
        "details": "See {IERC721-transferFrom}."
      }
    },
    "version": 1
  },
  "userdoc": {
    "kind": "user",
    "methods": {},
    "version": 1
  }
}